{
  "contractName": "Main",
  "abi": [
    {
      "inputs": [],
      "stateMutability": "nonpayable",
      "type": "constructor"
    },
    {
      "anonymous": false,
      "inputs": [
        {
          "indexed": false,
          "internalType": "address",
          "name": "a",
          "type": "address"
        },
        {
          "indexed": false,
          "internalType": "uint256",
          "name": "quiz_id",
          "type": "uint256"
        },
        {
          "indexed": false,
          "internalType": "uint256",
          "name": "option",
          "type": "uint256"
        }
      ],
      "name": "Answered",
      "type": "event"
    },
    {
      "anonymous": false,
      "inputs": [
        {
          "indexed": false,
          "internalType": "uint256",
          "name": "quiz_id",
          "type": "uint256"
        }
      ],
      "name": "Commence",
      "type": "event"
    },
    {
      "anonymous": false,
      "inputs": [
        {
          "indexed": false,
          "internalType": "address",
          "name": "pooler",
          "type": "address"
        },
        {
          "indexed": false,
          "internalType": "uint256",
          "name": "amount",
          "type": "uint256"
        },
        {
          "indexed": false,
          "internalType": "uint256",
          "name": "quiz_id",
          "type": "uint256"
        }
      ],
      "name": "Pooled",
      "type": "event"
    },
    {
      "anonymous": false,
      "inputs": [
        {
          "indexed": false,
          "internalType": "address",
          "name": "proposer",
          "type": "address"
        },
        {
          "indexed": false,
          "internalType": "uint256",
          "name": "quiz_id",
          "type": "uint256"
        }
      ],
      "name": "QuizProposed",
      "type": "event"
    },
    {
      "anonymous": false,
      "inputs": [
        {
          "indexed": false,
          "internalType": "uint256",
          "name": "id",
          "type": "uint256"
        },
        {
          "indexed": false,
          "internalType": "address",
          "name": "acc",
          "type": "address"
        },
        {
          "indexed": false,
          "internalType": "uint256",
          "name": "amount",
          "type": "uint256"
        }
      ],
      "name": "Staked",
      "type": "event"
    },
    {
      "inputs": [],
      "name": "GetParticipantLimit",
      "outputs": [
        {
          "internalType": "uint256",
          "name": "",
          "type": "uint256"
        }
      ],
      "stateMutability": "view",
      "type": "function"
    },
    {
      "inputs": [],
      "name": "GetParticipationFee",
      "outputs": [
        {
          "internalType": "uint256",
          "name": "",
          "type": "uint256"
        }
      ],
      "stateMutability": "view",
      "type": "function"
    },
    {
      "inputs": [],
      "name": "GetProposalFee",
      "outputs": [
        {
          "internalType": "uint256",
          "name": "",
          "type": "uint256"
        }
      ],
      "stateMutability": "view",
      "type": "function"
    },
    {
      "inputs": [
        {
          "internalType": "address",
          "name": "a",
          "type": "address"
        }
      ],
      "name": "GetStake",
      "outputs": [
        {
          "internalType": "uint256",
          "name": "",
          "type": "uint256"
        }
      ],
      "stateMutability": "view",
      "type": "function"
    },
    {
      "inputs": [
        {
          "internalType": "address",
          "name": "a",
          "type": "address"
        }
      ],
      "name": "IsMember",
      "outputs": [
        {
          "internalType": "bool",
          "name": "",
          "type": "bool"
        }
      ],
      "stateMutability": "view",
      "type": "function"
    },
    {
      "inputs": [
        {
          "internalType": "address",
          "name": "a",
          "type": "address"
        },
        {
          "internalType": "uint256",
          "name": "quiz_id",
          "type": "uint256"
        }
      ],
      "name": "IsQuizOwner",
      "outputs": [
        {
          "internalType": "bool",
          "name": "",
          "type": "bool"
        }
      ],
      "stateMutability": "view",
      "type": "function"
    },
    {
      "inputs": [
        {
          "internalType": "uint256",
          "name": "index",
          "type": "uint256"
        }
      ],
      "name": "NumberofPartipants",
      "outputs": [
        {
          "internalType": "uint256",
          "name": "",
          "type": "uint256"
        }
      ],
      "stateMutability": "view",
      "type": "function"
    },
    {
      "inputs": [
        {
          "internalType": "uint256",
          "name": "_limit",
          "type": "uint256"
        }
      ],
      "name": "SetParticipantLimit",
      "outputs": [],
      "stateMutability": "nonpayable",
      "type": "function"
    },
    {
      "inputs": [
        {
          "internalType": "uint256",
          "name": "_fee",
          "type": "uint256"
        }
      ],
      "name": "SetParticipationFee",
      "outputs": [],
      "stateMutability": "nonpayable",
      "type": "function"
    },
    {
      "inputs": [
        {
          "internalType": "uint256",
          "name": "_fee",
          "type": "uint256"
        }
      ],
      "name": "SetProposalFee",
      "outputs": [],
      "stateMutability": "nonpayable",
      "type": "function"
    },
    {
      "inputs": [
        {
          "internalType": "string",
          "name": "_name",
          "type": "string"
        }
      ],
      "name": "Register",
      "outputs": [],
      "stateMutability": "nonpayable",
      "type": "function"
    },
    {
      "inputs": [],
      "name": "Stake",
      "outputs": [],
      "stateMutability": "payable",
      "type": "function"
    },
    {
      "inputs": [
        {
          "internalType": "string",
          "name": "q",
          "type": "string"
        },
        {
          "internalType": "string",
          "name": "op1",
          "type": "string"
        },
        {
          "internalType": "string",
          "name": "op2",
          "type": "string"
        },
        {
          "internalType": "string",
          "name": "op3",
          "type": "string"
        },
        {
          "internalType": "string",
          "name": "op4",
          "type": "string"
        },
        {
          "internalType": "uint256",
          "name": "correct",
          "type": "uint256"
        }
      ],
      "name": "ProposeQuiz",
      "outputs": [],
      "stateMutability": "nonpayable",
      "type": "function"
    },
    {
      "inputs": [
        {
          "internalType": "uint256",
          "name": "amount",
          "type": "uint256"
        },
        {
          "internalType": "uint256",
          "name": "quiz_id",
          "type": "uint256"
        }
      ],
      "name": "Pool",
      "outputs": [],
      "stateMutability": "nonpayable",
      "type": "function"
    },
    {
      "inputs": [
        {
          "internalType": "uint256",
          "name": "quiz_id",
          "type": "uint256"
        }
      ],
      "name": "TerminateQuiz",
      "outputs": [],
      "stateMutability": "nonpayable",
      "type": "function"
    },
    {
      "inputs": [
        {
          "internalType": "uint256",
          "name": "quiz_id",
          "type": "uint256"
        }
      ],
      "name": "CommenceQuiz",
      "outputs": [],
      "stateMutability": "nonpayable",
      "type": "function"
    }
  ],
  "bytecode": "0x608060405234801561001057600080fd5b5062030d40600081905550620186a0600181905550600360028190555060016005819055506001600681905550611bef8061004c6000396000f3fe6080604052600436106100f35760003560e01c80635c50c78d1161008a578063b9de6bc111610059578063b9de6bc114610326578063c8ed047a14610363578063de20bc921461038c578063e3aee4c814610396576100f3565b80635c50c78d1461026a5780636330f636146102a757806376020826146102d0578063a6781518146102fb576100f3565b806338a90160116100c657806338a90160146101c45780633c4aa814146101ed57806340b2d3af146102165780635a7d54511461023f576100f3565b806320ec8ecd146100f8578063264560d6146101215780632869fc281461015e5780632b2ae28c1461019b575b600080fd5b34801561010457600080fd5b5061011f600480360361011a91908101906113a7565b6103bf565b005b34801561012d57600080fd5b5061014860048036036101439190810190611301565b6106b2565b60405161015591906118e7565b60405180910390f35b34801561016a57600080fd5b50610185600480360361018091908101906114a8565b610723565b6040516101929190611a42565b60405180910390f35b3480156101a757600080fd5b506101c260048036036101bd91908101906114a8565b61074e565b005b3480156101d057600080fd5b506101eb60048036036101e691908101906114a8565b610758565b005b3480156101f957600080fd5b50610214600480360361020f91908101906114d1565b61081f565b005b34801561022257600080fd5b5061023d60048036036102389190810190611366565b610a95565b005b34801561024b57600080fd5b50610254610be9565b6040516102619190611a42565b60405180910390f35b34801561027657600080fd5b50610291600480360361028c9190810190611301565b610bf3565b60405161029e9190611a42565b60405180910390f35b3480156102b357600080fd5b506102ce60048036036102c991908101906114a8565b610c87565b005b3480156102dc57600080fd5b506102e5610c91565b6040516102f29190611a42565b60405180910390f35b34801561030757600080fd5b50610310610c9b565b60405161031d9190611a42565b60405180910390f35b34801561033257600080fd5b5061034d6004803603610348919081019061132a565b610ca4565b60405161035a91906118e7565b60405180910390f35b34801561036f57600080fd5b5061038a600480360361038591908101906114a8565b610d2c565b005b610394610e93565b005b3480156103a257600080fd5b506103bd60048036036103b891908101906114a8565b610fda565b005b6103c8336106b2565b610407576040517f08c379a00000000000000000000000000000000000000000000000000000000081526004016103fe906119a2565b60405180910390fd5b60005461041333610bf3565b1015610454576040517f08c379a000000000000000000000000000000000000000000000000000000000815260040161044b906119c2565b60405180910390fd5b60046040518060c001604052803373ffffffffffffffffffffffffffffffffffffffff168152602001888152602001604051806080016040528089815260200188815260200187815260200186815250815260200183815260200160006040519080825280602002602001820160405280156104df5781602001602082028038833980820191505090505b5081526020016000815250908060018154018082558091505060019003906000526020600020906009020160009091909190915060008201518160000160006101000a81548173ffffffffffffffffffffffffffffffffffffffff021916908373ffffffffffffffffffffffffffffffffffffffff1602179055506020820151816001019080519060200190610576929190610fe4565b5060408201518160020190600461058e929190611064565b506060820151816006015560808201518160070190805190602001906105b59291906110b7565b5060a082015181600801555050600654600360003373ffffffffffffffffffffffffffffffffffffffff1673ffffffffffffffffffffffffffffffffffffffff16815260200190815260200160002060040181905550600054600360003373ffffffffffffffffffffffffffffffffffffffff1673ffffffffffffffffffffffffffffffffffffffff168152602001908152602001600020600201600082825403925050819055507f760fa1f0e522495e65a7bb5708cc80a00aaede90b9cc7679dec1761361abbb6f33600654604051610690929190611887565b60405180910390a1600660008154809291906001019190505550505050505050565b600060011515600360008473ffffffffffffffffffffffffffffffffffffffff1673ffffffffffffffffffffffffffffffffffffffff16815260200190815260200160002060030160149054906101000a900460ff1615151415610719576001905061071e565b600090505b919050565b60006004828154811061073257fe5b9060005260206000209060090201600701805490509050919050565b8060028190555050565b600654811061079c576040517f08c379a000000000000000000000000000000000000000000000000000000000815260040161079390611962565b60405180910390fd5b6107a63382610ca4565b6107e5576040517f08c379a00000000000000000000000000000000000000000000000000000000081526004016107dc90611a02565b60405180910390fd5b7f0f7c2de4dae2fe91905d7ccaf19d05038322ed39f31aabda99b16098382c20ef816040516108149190611a42565b60405180910390a150565b6002546004828154811061082f57fe5b90600052602060002090600902016007018054905010610884576040517f08c379a000000000000000000000000000000000000000000000000000000000815260040161087b90611922565b60405180910390fd5b8161088e33610bf3565b10156108cf576040517f08c379a00000000000000000000000000000000000000000000000000000000081526004016108c690611942565b60405180910390fd5b600154821015610914576040517f08c379a000000000000000000000000000000000000000000000000000000000815260040161090b906119e2565b60405180910390fd5b81600360003373ffffffffffffffffffffffffffffffffffffffff1673ffffffffffffffffffffffffffffffffffffffff16815260200190815260200160002060020160008282540392505081905550816004828154811061097257fe5b9060005260206000209060090201600801600082825401925050819055506004818154811061099d57fe5b9060005260206000209060090201600701339080600181540180825580915050600190039060005260206000200160009091909190916101000a81548173ffffffffffffffffffffffffffffffffffffffff021916908373ffffffffffffffffffffffffffffffffffffffff16021790555080600360003373ffffffffffffffffffffffffffffffffffffffff1673ffffffffffffffffffffffffffffffffffffffff168152602001908152602001600020600501819055507f9755ce01f6964cf8065b7a000e08193d603e937bca4e13c85191edd2a4e22f97338383604051610a89939291906118b0565b60405180910390a15050565b6040518060e001604052808281526020016005548152602001600081526020013373ffffffffffffffffffffffffffffffffffffffff168152602001600115158152602001600081526020016000815250600360003373ffffffffffffffffffffffffffffffffffffffff1673ffffffffffffffffffffffffffffffffffffffff1681526020019081526020016000206000820151816000019080519060200190610b41929190610fe4565b50602082015181600101556040820151816002015560608201518160030160006101000a81548173ffffffffffffffffffffffffffffffffffffffff021916908373ffffffffffffffffffffffffffffffffffffffff16021790555060808201518160030160146101000a81548160ff02191690831515021790555060a0820151816004015560c0820151816005015590505060056000815480929190600101919050555050565b6000600154905090565b6000610bfe826106b2565b610c3d576040517f08c379a0000000000000000000000000000000000000000000000000000000008152600401610c34906119a2565b60405180910390fd5b600360008373ffffffffffffffffffffffffffffffffffffffff1673ffffffffffffffffffffffffffffffffffffffff168152602001908152602001600020600201549050919050565b8060008190555050565b6000600254905090565b60008054905090565b60008273ffffffffffffffffffffffffffffffffffffffff1660048381548110610cca57fe5b906000526020600020906009020160000160009054906101000a900473ffffffffffffffffffffffffffffffffffffffff1673ffffffffffffffffffffffffffffffffffffffff161415610d215760019050610d26565b600090505b92915050565b6006548110610d70576040517f08c379a0000000000000000000000000000000000000000000000000000000008152600401610d6790611962565b60405180910390fd5b610d7a3382610ca4565b610db9576040517f08c379a0000000000000000000000000000000000000000000000000000000008152600401610db090611982565b60405180910390fd5b600054600360003373ffffffffffffffffffffffffffffffffffffffff1673ffffffffffffffffffffffffffffffffffffffff1681526020019081526020016000206002016000828254019250508190555060048181548110610e1857fe5b9060005260206000209060090201600080820160006101000a81549073ffffffffffffffffffffffffffffffffffffffff0219169055600182016000610e5e9190611141565b600282016000610e6e9190611189565b6006820160009055600782016000610e8691906111ce565b6008820160009055505050565b610e9c336106b2565b610edb576040517f08c379a0000000000000000000000000000000000000000000000000000000008152600401610ed290611a22565b60405180910390fd5b6000341015610f1f576040517f08c379a0000000000000000000000000000000000000000000000000000000008152600401610f1690611902565b60405180910390fd5b6000600360003373ffffffffffffffffffffffffffffffffffffffff1673ffffffffffffffffffffffffffffffffffffffff16815260200190815260200160002090503481600201600082825401925050819055507f18dcd430020e4d4899772fd94a8b40451dc5044dfb70bc46b532eeae431c864f81600101548260030160009054906101000a900473ffffffffffffffffffffffffffffffffffffffff1634604051610fcf93929190611a5d565b60405180910390a150565b8060018190555050565b828054600181600116156101000203166002900490600052602060002090601f016020900481019282601f1061102557805160ff1916838001178555611053565b82800160010185558215611053579182015b82811115611052578251825591602001919060010190611037565b5b50905061106091906111ef565b5090565b82600481019282156110a6579160200282015b828111156110a5578251829080519060200190611095929190610fe4565b5091602001919060010190611077565b5b5090506110b39190611214565b5090565b828054828255906000526020600020908101928215611130579160200282015b8281111561112f5782518260006101000a81548173ffffffffffffffffffffffffffffffffffffffff021916908373ffffffffffffffffffffffffffffffffffffffff160217905550916020019190600101906110d7565b5b50905061113d9190611240565b5090565b50805460018160011615610100020316600290046000825580601f106111675750611186565b601f01602090049060005260206000209081019061118591906111ef565b5b50565b50600081816111989190611141565b50600101600081816111aa9190611141565b50600101600081816111bc9190611141565b5060010160006111cc9190611141565b565b50805460008255906000526020600020908101906111ec91906111ef565b50565b61121191905b8082111561120d5760008160009055506001016111f5565b5090565b90565b61123d91905b8082111561123957600081816112309190611141565b5060010161121a565b5090565b90565b61128091905b8082111561127c57600081816101000a81549073ffffffffffffffffffffffffffffffffffffffff021916905550600101611246565b5090565b90565b60008135905061129281611b8b565b92915050565b600082601f8301126112a957600080fd5b81356112bc6112b782611ac1565b611a94565b915080825260208301602083018583830111156112d857600080fd5b6112e3838284611b7c565b50505092915050565b6000813590506112fb81611ba2565b92915050565b60006020828403121561131357600080fd5b600061132184828501611283565b91505092915050565b6000806040838503121561133d57600080fd5b600061134b85828601611283565b925050602061135c858286016112ec565b9150509250929050565b60006020828403121561137857600080fd5b600082013567ffffffffffffffff81111561139257600080fd5b61139e84828501611298565b91505092915050565b60008060008060008060c087890312156113c057600080fd5b600087013567ffffffffffffffff8111156113da57600080fd5b6113e689828a01611298565b965050602087013567ffffffffffffffff81111561140357600080fd5b61140f89828a01611298565b955050604087013567ffffffffffffffff81111561142c57600080fd5b61143889828a01611298565b945050606087013567ffffffffffffffff81111561145557600080fd5b61146189828a01611298565b935050608087013567ffffffffffffffff81111561147e57600080fd5b61148a89828a01611298565b92505060a061149b89828a016112ec565b9150509295509295509295565b6000602082840312156114ba57600080fd5b60006114c8848285016112ec565b91505092915050565b600080604083850312156114e457600080fd5b60006114f2858286016112ec565b9250506020611503858286016112ec565b9150509250929050565b61151681611b46565b82525050565b61152581611afe565b82525050565b61153481611b10565b82525050565b6000611547601683611aed565b91507f456e746572656420416d6f756e7420496e76616c6964000000000000000000006000830152602082019050919050565b6000611587603883611aed565b91507f536f72727920746865207175697a2070617274696369706174696f6e2069732060008301527f66756c6c202e20506c6561736520747279206c617465722000000000000000006020830152604082019050919050565b60006115ed601183611aed565b91507f4e6f7420456e6f756768207374616b65200000000000000000000000000000006000830152602082019050919050565b600061162d601783611aed565b91507f53756368207175697a20646f65736e27742065786973740000000000000000006000830152602082019050919050565b600061166d602683611aed565b91507f4f6e6c7920746865207175697a206f776e65722063616e2063616c6c2054657260008301527f6d696e61746500000000000000000000000000000000000000000000000000006020830152604082019050919050565b60006116d3601583611aed565b91507f506c6561736520726567697374657220666972737400000000000000000000006000830152602082019050919050565b6000611713602283611aed565b91507f4e6f7420656e6f756768207374616b6520666f72207175697a2070726f706f7360008301527f616c0000000000000000000000000000000000000000000000000000000000006020830152604082019050919050565b6000611779602683611aed565b91507f4d696e696d756d2070617274696369706174696f6e20666565206e6f7420726560008301527f61636865642000000000000000000000000000000000000000000000000000006020830152604082019050919050565b60006117df602583611aed565b91507f4f6e6c7920746865207175697a206f776e65722063616e2063616c6c20436f6d60008301527f6d656e63650000000000000000000000000000000000000000000000000000006020830152604082019050919050565b6000611845601683611aed565b91507f20506c65617365207265676973746572206669727374000000000000000000006000830152602082019050919050565b61188181611b3c565b82525050565b600060408201905061189c600083018561150d565b6118a96020830184611878565b9392505050565b60006060820190506118c5600083018661150d565b6118d26020830185611878565b6118df6040830184611878565b949350505050565b60006020820190506118fc600083018461152b565b92915050565b6000602082019050818103600083015261191b8161153a565b9050919050565b6000602082019050818103600083015261193b8161157a565b9050919050565b6000602082019050818103600083015261195b816115e0565b9050919050565b6000602082019050818103600083015261197b81611620565b9050919050565b6000602082019050818103600083015261199b81611660565b9050919050565b600060208201905081810360008301526119bb816116c6565b9050919050565b600060208201905081810360008301526119db81611706565b9050919050565b600060208201905081810360008301526119fb8161176c565b9050919050565b60006020820190508181036000830152611a1b816117d2565b9050919050565b60006020820190508181036000830152611a3b81611838565b9050919050565b6000602082019050611a576000830184611878565b92915050565b6000606082019050611a726000830186611878565b611a7f602083018561151c565b611a8c6040830184611878565b949350505050565b6000604051905081810181811067ffffffffffffffff82111715611ab757600080fd5b8060405250919050565b600067ffffffffffffffff821115611ad857600080fd5b601f19601f8301169050602081019050919050565b600082825260208201905092915050565b6000611b0982611b1c565b9050919050565b60008115159050919050565b600073ffffffffffffffffffffffffffffffffffffffff82169050919050565b6000819050919050565b6000611b5182611b58565b9050919050565b6000611b6382611b6a565b9050919050565b6000611b7582611b1c565b9050919050565b82818337600083830152505050565b611b9481611afe565b8114611b9f57600080fd5b50565b611bab81611b3c565b8114611bb657600080fd5b5056fea2646970667358221220b777fd70de0d8258f67751b2ec54c07ad10c9fb8974f2890651d48a8fcfc1efa64736f6c63430006000033",
  "source": "pragma solidity ^0.6.0;\npragma experimental ABIEncoderV2;\nimport \"./MemberStore.sol\";\nimport \"./QuizStore.sol\";\n\n// ## include safemath later on......\ncontract Main is MemberStorage  , QuizStorage{\n    uint private count;\n    uint private quizcounter ; // choosing the active quiz;\n    constructor() public{\n        count = 1;\n        quizcounter = 1;\n    }\n    \n    function Register(string memory _name) public {\n        member[msg.sender] = User(_name , count , 0 , msg.sender , true , 0 , 0);\n        count++;\n    }\n    \n    event Staked(uint id , address acc , uint256 amount);\n    \n    function Stake() public payable {\n        \n        require(IsMember(msg.sender) , \" Please register first\");\n        require(msg.value >=0 , \"Entered Amount Invalid\");\n        \n        User storage user = member[msg.sender]; // user is a pointer to a storage elem.\n        user.stake += msg.value;\n        emit Staked(user.id , user.acc , msg.value);\n    }\n    \n    // currently a single question quiz .\n    // call to propose quiz creates a Quiz in storage and slashes a part of stake of the proposer.\n    \n    event QuizProposed(address proposer , uint quiz_id );\n    \n    function ProposeQuiz(string memory q , string memory op1 , string memory op2 , string memory op3 , string memory op4 , uint correct) public {\n        \n        require(IsMember(msg.sender) , \"Please register first\");\n        require(GetStake(msg.sender) >= proposal_fee, \"Not enough stake for quiz proposal\");\n        \n        proposed_quiz.push(Quiz(msg.sender ,q , [op1 ,op2,op3,op4] ,correct,  new address[](0) , 0));\n        member[msg.sender].quiz_proposed = quizcounter;\n        member[msg.sender].stake -= proposal_fee;\n        emit QuizProposed(msg.sender , quizcounter);\n        quizcounter++;\n    }\n    \n    // in-contract time management ??\n    // currently the frontend should handle the pooling period time.\n    // The pooling happens for the quiz pointed by quizcounter...\n    // Pool() can only be called during pooling period.\n    \n    event Pooled(address pooler , uint amount , uint quiz_id);\n    function Pool(uint256 amount , uint256 quiz_id) public {\n        \n        require(proposed_quiz[quiz_id].participants.length < participant_limit , \"Sorry the quiz participation is full . Please try later \");\n        require(GetStake(msg.sender) >= amount , \"Not Enough stake \");\n        require(amount >= participation_fee , \"Minimum participation fee not reached \");\n        \n        member[msg.sender].stake -= amount;\n        proposed_quiz[quiz_id].TotalPool += amount;\n        proposed_quiz[quiz_id].participants.push(msg.sender);\n        member[msg.sender].quiz_entered = quiz_id;\n        emit Pooled(msg.sender , amount , quiz_id);\n    }\n    \n    // if the participants == 0 after pooling time is up Terminate Quiz is called \n    \n    function TerminateQuiz(uint quiz_id) public {\n        \n        require(quiz_id < quizcounter , \"Such quiz doesn't exist\");\n        require(IsQuizOwner(msg.sender , quiz_id) , \"Only the quiz owner can call Terminate\");\n        \n        member[msg.sender].stake += proposal_fee;\n        delete proposed_quiz[quiz_id];\n    }\n    \n    event Commence(uint quiz_id);\n    function CommenceQuiz(uint quiz_id) public {\n        \n        require(quiz_id < quizcounter , \"Such quiz doesn't exist\");\n        require(IsQuizOwner(msg.sender , quiz_id) , \"Only the quiz owner can call Commence\");\n        \n        emit Commence(quiz_id);\n        // notify all participants \n    }\n    \n    event Answered(address a , uint quiz_id , uint option ); \n    \n    \n    \n    \n}\n",
  "sourcePath": "/home/mukul/Documents/Decent_Quiz/contracts/Quiz.sol",
  "compiler": {
    "name": "solc",
    "version": "0.6.0+commit.26b70077.Emscripten.clang"
  },
  "schemaVersion": "3.3.3",
  "updatedAt": "2021-02-05T10:59:34.365Z",
  "devdoc": {
    "methods": {}
  },
  "userdoc": {
    "methods": {}
  }
}