{
  "contractName": "Main",
  "abi": [
    {
      "inputs": [],
      "stateMutability": "nonpayable",
      "type": "constructor"
    },
    {
      "anonymous": false,
      "inputs": [
        {
          "indexed": false,
          "internalType": "address",
          "name": "a",
          "type": "address"
        },
        {
          "indexed": false,
          "internalType": "uint256",
          "name": "quiz_id",
          "type": "uint256"
        },
        {
          "indexed": false,
          "internalType": "uint256",
          "name": "option",
          "type": "uint256"
        }
      ],
      "name": "Answered",
      "type": "event"
    },
    {
      "anonymous": false,
      "inputs": [
        {
          "indexed": false,
          "internalType": "uint256",
          "name": "quiz_id",
          "type": "uint256"
        }
      ],
      "name": "Commence",
      "type": "event"
    },
    {
      "anonymous": false,
      "inputs": [
        {
          "indexed": false,
          "internalType": "address",
          "name": "pooler",
          "type": "address"
        },
        {
          "indexed": false,
          "internalType": "uint256",
          "name": "amount",
          "type": "uint256"
        },
        {
          "indexed": false,
          "internalType": "uint256",
          "name": "quiz_id",
          "type": "uint256"
        }
      ],
      "name": "Pooled",
      "type": "event"
    },
    {
      "anonymous": false,
      "inputs": [
        {
          "indexed": false,
          "internalType": "address",
          "name": "proposer",
          "type": "address"
        },
        {
          "indexed": false,
          "internalType": "uint256",
          "name": "quiz_id",
          "type": "uint256"
        },
        {
          "indexed": false,
          "internalType": "uint256",
          "name": "correct",
          "type": "uint256"
        }
      ],
      "name": "QuizProposed",
      "type": "event"
    },
    {
      "anonymous": false,
      "inputs": [
        {
          "indexed": false,
          "internalType": "uint256",
          "name": "id",
          "type": "uint256"
        },
        {
          "indexed": false,
          "internalType": "address",
          "name": "acc",
          "type": "address"
        },
        {
          "indexed": false,
          "internalType": "uint256",
          "name": "amount",
          "type": "uint256"
        }
      ],
      "name": "Staked",
      "type": "event"
    },
    {
      "inputs": [
        {
          "internalType": "address",
          "name": "a",
          "type": "address"
        }
      ],
      "name": "GetStake",
      "outputs": [
        {
          "internalType": "uint256",
          "name": "",
          "type": "uint256"
        }
      ],
      "stateMutability": "view",
      "type": "function"
    },
    {
      "inputs": [
        {
          "internalType": "address",
          "name": "a",
          "type": "address"
        }
      ],
      "name": "IsMember",
      "outputs": [
        {
          "internalType": "bool",
          "name": "",
          "type": "bool"
        }
      ],
      "stateMutability": "view",
      "type": "function"
    },
    {
      "inputs": [
        {
          "internalType": "address",
          "name": "a",
          "type": "address"
        },
        {
          "internalType": "uint256",
          "name": "quiz_id",
          "type": "uint256"
        }
      ],
      "name": "IsQuizOwner",
      "outputs": [
        {
          "internalType": "bool",
          "name": "",
          "type": "bool"
        }
      ],
      "stateMutability": "view",
      "type": "function"
    },
    {
      "inputs": [
        {
          "internalType": "uint256",
          "name": "index",
          "type": "uint256"
        }
      ],
      "name": "NumberofPartipants",
      "outputs": [
        {
          "internalType": "uint256",
          "name": "",
          "type": "uint256"
        }
      ],
      "stateMutability": "view",
      "type": "function"
    },
    {
      "inputs": [
        {
          "internalType": "uint256",
          "name": "quiz_id",
          "type": "uint256"
        }
      ],
      "name": "QuizCommenced",
      "outputs": [
        {
          "internalType": "bool",
          "name": "",
          "type": "bool"
        }
      ],
      "stateMutability": "view",
      "type": "function"
    },
    {
      "inputs": [
        {
          "internalType": "uint256",
          "name": "_limit",
          "type": "uint256"
        }
      ],
      "name": "SetParticipantLimit",
      "outputs": [],
      "stateMutability": "nonpayable",
      "type": "function"
    },
    {
      "inputs": [
        {
          "internalType": "uint256",
          "name": "_fee",
          "type": "uint256"
        }
      ],
      "name": "SetParticipationFee",
      "outputs": [],
      "stateMutability": "nonpayable",
      "type": "function"
    },
    {
      "inputs": [
        {
          "internalType": "uint256",
          "name": "_fee",
          "type": "uint256"
        }
      ],
      "name": "SetProposalFee",
      "outputs": [],
      "stateMutability": "nonpayable",
      "type": "function"
    },
    {
      "inputs": [
        {
          "internalType": "address",
          "name": "a",
          "type": "address"
        }
      ],
      "name": "hasPooled",
      "outputs": [
        {
          "internalType": "bool",
          "name": "",
          "type": "bool"
        }
      ],
      "stateMutability": "view",
      "type": "function"
    },
    {
      "inputs": [],
      "name": "participant_limit",
      "outputs": [
        {
          "internalType": "uint256",
          "name": "",
          "type": "uint256"
        }
      ],
      "stateMutability": "view",
      "type": "function"
    },
    {
      "inputs": [],
      "name": "participation_fee",
      "outputs": [
        {
          "internalType": "uint256",
          "name": "",
          "type": "uint256"
        }
      ],
      "stateMutability": "view",
      "type": "function"
    },
    {
      "inputs": [],
      "name": "proposal_fee",
      "outputs": [
        {
          "internalType": "uint256",
          "name": "",
          "type": "uint256"
        }
      ],
      "stateMutability": "view",
      "type": "function"
    },
    {
      "inputs": [
        {
          "internalType": "string",
          "name": "_name",
          "type": "string"
        }
      ],
      "name": "Register",
      "outputs": [],
      "stateMutability": "nonpayable",
      "type": "function"
    },
    {
      "inputs": [],
      "name": "Stake",
      "outputs": [],
      "stateMutability": "payable",
      "type": "function"
    },
    {
      "inputs": [
        {
          "internalType": "string",
          "name": "q",
          "type": "string"
        },
        {
          "internalType": "string",
          "name": "op1",
          "type": "string"
        },
        {
          "internalType": "string",
          "name": "op2",
          "type": "string"
        },
        {
          "internalType": "string",
          "name": "op3",
          "type": "string"
        },
        {
          "internalType": "string",
          "name": "op4",
          "type": "string"
        },
        {
          "internalType": "uint256",
          "name": "correct",
          "type": "uint256"
        }
      ],
      "name": "ProposeQuiz",
      "outputs": [],
      "stateMutability": "nonpayable",
      "type": "function"
    },
    {
      "inputs": [
        {
          "internalType": "uint256",
          "name": "amount",
          "type": "uint256"
        },
        {
          "internalType": "uint256",
          "name": "quiz_id",
          "type": "uint256"
        }
      ],
      "name": "Pool",
      "outputs": [],
      "stateMutability": "nonpayable",
      "type": "function"
    },
    {
      "inputs": [
        {
          "internalType": "uint256",
          "name": "quiz_id",
          "type": "uint256"
        }
      ],
      "name": "TerminateQuiz",
      "outputs": [],
      "stateMutability": "nonpayable",
      "type": "function"
    },
    {
      "inputs": [
        {
          "internalType": "uint256",
          "name": "quiz_id",
          "type": "uint256"
        }
      ],
      "name": "CommenceQuiz",
      "outputs": [],
      "stateMutability": "nonpayable",
      "type": "function"
    }
  ],
  "bytecode": "0x608060405234801561001057600080fd5b5062030d40600081905550620186a0600181905550600360028190555033600360006101000a81548173ffffffffffffffffffffffffffffffffffffffff021916908373ffffffffffffffffffffffffffffffffffffffff16021790555060016006819055506001600781905550611e608061008d6000396000f3fe6080604052600436106101095760003560e01c80636330f63611610095578063c8ed047a11610064578063c8ed047a1461038b578063cd687153146103b4578063de20bc92146103df578063e3aee4c8146103e9578063ecbcb1c71461041257610109565b80636330f636146102bd5780636cedcceb146102e65780637173b9a514610311578063b9de6bc11461034e57610109565b80632b2ae28c116100dc5780632b2ae28c146101dc57806338a90160146102055780633c4aa8141461022e57806340b2d3af146102575780635c50c78d1461028057610109565b80631ca4847f1461010e57806320ec8ecd14610139578063264560d6146101625780632869fc281461019f575b600080fd5b34801561011a57600080fd5b5061012361044f565b6040516101309190611cb3565b60405180910390f35b34801561014557600080fd5b50610160600480360361015b9190810190611641565b610455565b005b34801561016e57600080fd5b506101896004803603610184919081019061159b565b610773565b6040516101969190611b58565b60405180910390f35b3480156101ab57600080fd5b506101c660048036036101c19190810190611742565b6107e4565b6040516101d39190611cb3565b60405180910390f35b3480156101e857600080fd5b5061020360048036036101fe9190810190611742565b61080f565b005b34801561021157600080fd5b5061022c60048036036102279190810190611742565b610873565b005b34801561023a57600080fd5b506102556004803603610250919081019061176b565b610971565b005b34801561026357600080fd5b5061027e60048036036102799190810190611600565b610be7565b005b34801561028c57600080fd5b506102a760048036036102a2919081019061159b565b610d3b565b6040516102b49190611cb3565b60405180910390f35b3480156102c957600080fd5b506102e460048036036102df9190810190611742565b610dcf565b005b3480156102f257600080fd5b506102fb610e33565b6040516103089190611cb3565b60405180910390f35b34801561031d57600080fd5b506103386004803603610333919081019061159b565b610e39565b6040516103459190611b58565b60405180910390f35b34801561035a57600080fd5b50610375600480360361037091908101906115c4565b610e95565b6040516103829190611b58565b60405180910390f35b34801561039757600080fd5b506103b260048036036103ad9190810190611742565b610f1d565b005b3480156103c057600080fd5b506103c9611098565b6040516103d69190611cb3565b60405180910390f35b6103e761109e565b005b3480156103f557600080fd5b50610410600480360361040b9190810190611742565b6111e5565b005b34801561041e57600080fd5b5061043960048036036104349190810190611742565b611249565b6040516104469190611b58565b60405180910390f35b60025481565b61045e33610773565b61049d576040517f08c379a000000000000000000000000000000000000000000000000000000000815260040161049490611c13565b60405180910390fd5b6000546104a933610d3b565b10156104ea576040517f08c379a00000000000000000000000000000000000000000000000000000000081526004016104e190611c33565b60405180910390fd5b60056040518060e001604052803373ffffffffffffffffffffffffffffffffffffffff168152602001888152602001604051806080016040528089815260200188815260200187815260200186815250815260200183815260200160006040519080825280602002602001820160405280156105755781602001602082028038833980820191505090505b508152602001600081526020016000151581525090806001815401808255809150506001900390600052602060002090600a020160009091909190915060008201518160000160006101000a81548173ffffffffffffffffffffffffffffffffffffffff021916908373ffffffffffffffffffffffffffffffffffffffff160217905550602082015181600101908051906020019061061592919061127e565b5060408201518160020190600461062d9291906112fe565b50606082015181600601556080820151816007019080519060200190610654929190611351565b5060a0820151816008015560c08201518160090160006101000a81548160ff0219169083151502179055505050600754600460003373ffffffffffffffffffffffffffffffffffffffff1673ffffffffffffffffffffffffffffffffffffffff16815260200190815260200160002060040181905550600054600460003373ffffffffffffffffffffffffffffffffffffffff1673ffffffffffffffffffffffffffffffffffffffff168152602001908152602001600020600201600082825403925050819055507fdf7669bd9a0065e5eac64892eb15e2d4a400771c553aef6ae7e797d4a42a02bb336007548360405161075193929190611b21565b60405180910390a1600760008154809291906001019190505550505050505050565b600060011515600460008473ffffffffffffffffffffffffffffffffffffffff1673ffffffffffffffffffffffffffffffffffffffff16815260200190815260200160002060030160149054906101000a900460ff16151514156107da57600190506107df565b600090505b919050565b6000600582815481106107f357fe5b90600052602060002090600a0201600701805490509050919050565b600360009054906101000a900473ffffffffffffffffffffffffffffffffffffffff1673ffffffffffffffffffffffffffffffffffffffff163373ffffffffffffffffffffffffffffffffffffffff161461086957600080fd5b8060028190555050565b60075481106108b7576040517f08c379a00000000000000000000000000000000000000000000000000000000081526004016108ae90611bd3565b60405180910390fd5b6108c13382610e95565b610900576040517f08c379a00000000000000000000000000000000000000000000000000000000081526004016108f790611c73565b60405180910390fd5b60016005828154811061090f57fe5b90600052602060002090600a020160090160006101000a81548160ff0219169083151502179055507f0f7c2de4dae2fe91905d7ccaf19d05038322ed39f31aabda99b16098382c20ef816040516109669190611cb3565b60405180910390a150565b6002546005828154811061098157fe5b90600052602060002090600a020160070180549050106109d6576040517f08c379a00000000000000000000000000000000000000000000000000000000081526004016109cd90611b93565b60405180910390fd5b816109e033610d3b565b1015610a21576040517f08c379a0000000000000000000000000000000000000000000000000000000008152600401610a1890611bb3565b60405180910390fd5b600154821015610a66576040517f08c379a0000000000000000000000000000000000000000000000000000000008152600401610a5d90611c53565b60405180910390fd5b81600460003373ffffffffffffffffffffffffffffffffffffffff1673ffffffffffffffffffffffffffffffffffffffff168152602001908152602001600020600201600082825403925050819055508160058281548110610ac457fe5b90600052602060002090600a02016008016000828254019250508190555060058181548110610aef57fe5b90600052602060002090600a0201600701339080600181540180825580915050600190039060005260206000200160009091909190916101000a81548173ffffffffffffffffffffffffffffffffffffffff021916908373ffffffffffffffffffffffffffffffffffffffff16021790555080600460003373ffffffffffffffffffffffffffffffffffffffff1673ffffffffffffffffffffffffffffffffffffffff168152602001908152602001600020600501819055507f9755ce01f6964cf8065b7a000e08193d603e937bca4e13c85191edd2a4e22f97338383604051610bdb93929190611b21565b60405180910390a15050565b6040518060e001604052808281526020016006548152602001600081526020013373ffffffffffffffffffffffffffffffffffffffff168152602001600115158152602001600081526020016000815250600460003373ffffffffffffffffffffffffffffffffffffffff1673ffffffffffffffffffffffffffffffffffffffff1681526020019081526020016000206000820151816000019080519060200190610c9392919061127e565b50602082015181600101556040820151816002015560608201518160030160006101000a81548173ffffffffffffffffffffffffffffffffffffffff021916908373ffffffffffffffffffffffffffffffffffffffff16021790555060808201518160030160146101000a81548160ff02191690831515021790555060a0820151816004015560c0820151816005015590505060066000815480929190600101919050555050565b6000610d4682610773565b610d85576040517f08c379a0000000000000000000000000000000000000000000000000000000008152600401610d7c90611c13565b60405180910390fd5b600460008373ffffffffffffffffffffffffffffffffffffffff1673ffffffffffffffffffffffffffffffffffffffff168152602001908152602001600020600201549050919050565b600360009054906101000a900473ffffffffffffffffffffffffffffffffffffffff1673ffffffffffffffffffffffffffffffffffffffff163373ffffffffffffffffffffffffffffffffffffffff1614610e2957600080fd5b8060008190555050565b60005481565b600080600460008473ffffffffffffffffffffffffffffffffffffffff1673ffffffffffffffffffffffffffffffffffffffff1681526020019081526020016000206005015411610e8b576000610e8e565b60015b9050919050565b60008273ffffffffffffffffffffffffffffffffffffffff1660058381548110610ebb57fe5b90600052602060002090600a020160000160009054906101000a900473ffffffffffffffffffffffffffffffffffffffff1673ffffffffffffffffffffffffffffffffffffffff161415610f125760019050610f17565b600090505b92915050565b6007548110610f61576040517f08c379a0000000000000000000000000000000000000000000000000000000008152600401610f5890611bd3565b60405180910390fd5b610f6b3382610e95565b610faa576040517f08c379a0000000000000000000000000000000000000000000000000000000008152600401610fa190611bf3565b60405180910390fd5b600054600460003373ffffffffffffffffffffffffffffffffffffffff1673ffffffffffffffffffffffffffffffffffffffff168152602001908152602001600020600201600082825401925050819055506005818154811061100957fe5b90600052602060002090600a0201600080820160006101000a81549073ffffffffffffffffffffffffffffffffffffffff021916905560018201600061104f91906113db565b60028201600061105f9190611423565b60068201600090556007820160006110779190611468565b60088201600090556009820160006101000a81549060ff0219169055505050565b60015481565b6110a733610773565b6110e6576040517f08c379a00000000000000000000000000000000000000000000000000000000081526004016110dd90611c93565b60405180910390fd5b600034101561112a576040517f08c379a000000000000000000000000000000000000000000000000000000000815260040161112190611b73565b60405180910390fd5b6000600460003373ffffffffffffffffffffffffffffffffffffffff1673ffffffffffffffffffffffffffffffffffffffff16815260200190815260200160002090503481600201600082825401925050819055507f18dcd430020e4d4899772fd94a8b40451dc5044dfb70bc46b532eeae431c864f81600101548260030160009054906101000a900473ffffffffffffffffffffffffffffffffffffffff16346040516111da93929190611cce565b60405180910390a150565b600360009054906101000a900473ffffffffffffffffffffffffffffffffffffffff1673ffffffffffffffffffffffffffffffffffffffff163373ffffffffffffffffffffffffffffffffffffffff161461123f57600080fd5b8060018190555050565b60006005828154811061125857fe5b90600052602060002090600a020160090160009054906101000a900460ff169050919050565b828054600181600116156101000203166002900490600052602060002090601f016020900481019282601f106112bf57805160ff19168380011785556112ed565b828001600101855582156112ed579182015b828111156112ec5782518255916020019190600101906112d1565b5b5090506112fa9190611489565b5090565b8260048101928215611340579160200282015b8281111561133f57825182908051906020019061132f92919061127e565b5091602001919060010190611311565b5b50905061134d91906114ae565b5090565b8280548282559060005260206000209081019282156113ca579160200282015b828111156113c95782518260006101000a81548173ffffffffffffffffffffffffffffffffffffffff021916908373ffffffffffffffffffffffffffffffffffffffff16021790555091602001919060010190611371565b5b5090506113d791906114da565b5090565b50805460018160011615610100020316600290046000825580601f106114015750611420565b601f01602090049060005260206000209081019061141f9190611489565b5b50565b506000818161143291906113db565b506001016000818161144491906113db565b506001016000818161145691906113db565b50600101600061146691906113db565b565b50805460008255906000526020600020908101906114869190611489565b50565b6114ab91905b808211156114a757600081600090555060010161148f565b5090565b90565b6114d791905b808211156114d357600081816114ca91906113db565b506001016114b4565b5090565b90565b61151a91905b8082111561151657600081816101000a81549073ffffffffffffffffffffffffffffffffffffffff0219169055506001016114e0565b5090565b90565b60008135905061152c81611dfc565b92915050565b600082601f83011261154357600080fd5b813561155661155182611d32565b611d05565b9150808252602083016020830185838301111561157257600080fd5b61157d838284611ded565b50505092915050565b60008135905061159581611e13565b92915050565b6000602082840312156115ad57600080fd5b60006115bb8482850161151d565b91505092915050565b600080604083850312156115d757600080fd5b60006115e58582860161151d565b92505060206115f685828601611586565b9150509250929050565b60006020828403121561161257600080fd5b600082013567ffffffffffffffff81111561162c57600080fd5b61163884828501611532565b91505092915050565b60008060008060008060c0878903121561165a57600080fd5b600087013567ffffffffffffffff81111561167457600080fd5b61168089828a01611532565b965050602087013567ffffffffffffffff81111561169d57600080fd5b6116a989828a01611532565b955050604087013567ffffffffffffffff8111156116c657600080fd5b6116d289828a01611532565b945050606087013567ffffffffffffffff8111156116ef57600080fd5b6116fb89828a01611532565b935050608087013567ffffffffffffffff81111561171857600080fd5b61172489828a01611532565b92505060a061173589828a01611586565b9150509295509295509295565b60006020828403121561175457600080fd5b600061176284828501611586565b91505092915050565b6000806040838503121561177e57600080fd5b600061178c85828601611586565b925050602061179d85828601611586565b9150509250929050565b6117b081611db7565b82525050565b6117bf81611d6f565b82525050565b6117ce81611d81565b82525050565b60006117e1601683611d5e565b91507f456e746572656420416d6f756e7420496e76616c6964000000000000000000006000830152602082019050919050565b6000611821603883611d5e565b91507f536f72727920746865207175697a2070617274696369706174696f6e2069732060008301527f66756c6c202e20506c6561736520747279206c617465722000000000000000006020830152604082019050919050565b6000611887601183611d5e565b91507f4e6f7420456e6f756768207374616b65200000000000000000000000000000006000830152602082019050919050565b60006118c7601783611d5e565b91507f53756368207175697a20646f65736e27742065786973740000000000000000006000830152602082019050919050565b6000611907602683611d5e565b91507f4f6e6c7920746865207175697a206f776e65722063616e2063616c6c2054657260008301527f6d696e61746500000000000000000000000000000000000000000000000000006020830152604082019050919050565b600061196d601583611d5e565b91507f506c6561736520726567697374657220666972737400000000000000000000006000830152602082019050919050565b60006119ad602283611d5e565b91507f4e6f7420656e6f756768207374616b6520666f72207175697a2070726f706f7360008301527f616c0000000000000000000000000000000000000000000000000000000000006020830152604082019050919050565b6000611a13602683611d5e565b91507f4d696e696d756d2070617274696369706174696f6e20666565206e6f7420726560008301527f61636865642000000000000000000000000000000000000000000000000000006020830152604082019050919050565b6000611a79602583611d5e565b91507f4f6e6c7920746865207175697a206f776e65722063616e2063616c6c20436f6d60008301527f6d656e63650000000000000000000000000000000000000000000000000000006020830152604082019050919050565b6000611adf601683611d5e565b91507f20506c65617365207265676973746572206669727374000000000000000000006000830152602082019050919050565b611b1b81611dad565b82525050565b6000606082019050611b3660008301866117a7565b611b436020830185611b12565b611b506040830184611b12565b949350505050565b6000602082019050611b6d60008301846117c5565b92915050565b60006020820190508181036000830152611b8c816117d4565b9050919050565b60006020820190508181036000830152611bac81611814565b9050919050565b60006020820190508181036000830152611bcc8161187a565b9050919050565b60006020820190508181036000830152611bec816118ba565b9050919050565b60006020820190508181036000830152611c0c816118fa565b9050919050565b60006020820190508181036000830152611c2c81611960565b9050919050565b60006020820190508181036000830152611c4c816119a0565b9050919050565b60006020820190508181036000830152611c6c81611a06565b9050919050565b60006020820190508181036000830152611c8c81611a6c565b9050919050565b60006020820190508181036000830152611cac81611ad2565b9050919050565b6000602082019050611cc86000830184611b12565b92915050565b6000606082019050611ce36000830186611b12565b611cf060208301856117b6565b611cfd6040830184611b12565b949350505050565b6000604051905081810181811067ffffffffffffffff82111715611d2857600080fd5b8060405250919050565b600067ffffffffffffffff821115611d4957600080fd5b601f19601f8301169050602081019050919050565b600082825260208201905092915050565b6000611d7a82611d8d565b9050919050565b60008115159050919050565b600073ffffffffffffffffffffffffffffffffffffffff82169050919050565b6000819050919050565b6000611dc282611dc9565b9050919050565b6000611dd482611ddb565b9050919050565b6000611de682611d8d565b9050919050565b82818337600083830152505050565b611e0581611d6f565b8114611e1057600080fd5b50565b611e1c81611dad565b8114611e2757600080fd5b5056fea264697066735822122043cf8a4ccdbc167fbd27127f52cd2bed258ebe6cdf0efc53a267ccbea12a26bd64736f6c63430006000033",
  "source": "pragma solidity ^0.6.0;\npragma experimental ABIEncoderV2;\nimport \"./MemberStore.sol\";\nimport \"./QuizStore.sol\";\n\n// ## include safemath later on......\ncontract Main is MemberStorage  , QuizStorage{\n    uint private count;\n    uint private quizcounter ; // choosing the active quiz;\n    constructor() public{\n        count = 1;\n        quizcounter = 1;\n    }\n    \n    function Register(string memory _name) public {\n        member[msg.sender] = User(_name , count , 0 , msg.sender , true , 0 , 0);\n        count++;\n    }\n    \n    event Staked(uint id , address acc , uint256 amount);\n    \n    function Stake() public payable {\n        \n        require(IsMember(msg.sender) , \" Please register first\");\n        require(msg.value >=0 , \"Entered Amount Invalid\");\n        \n        User storage user = member[msg.sender]; // user is a pointer to a storage elem.\n        user.stake += msg.value;\n        emit Staked(user.id , user.acc , msg.value);\n    }\n    \n    // currently a single question quiz .\n    // call to propose quiz creates a Quiz in storage and slashes a part of stake of the proposer.\n    \n    event QuizProposed(address proposer , uint quiz_id , uint correct );\n    \n    function ProposeQuiz(string memory q , string memory op1 , string memory op2 , string memory op3 , string memory op4 , uint correct) public {\n        \n        require(IsMember(msg.sender) , \"Please register first\");\n        require(GetStake(msg.sender) >= proposal_fee, \"Not enough stake for quiz proposal\");\n        \n        proposed_quiz.push(Quiz(msg.sender ,q , [op1 ,op2,op3,op4] ,correct,  new address[](0) , 0 , false));\n        member[msg.sender].quiz_proposed = quizcounter;\n        member[msg.sender].stake -= proposal_fee;\n        emit QuizProposed(msg.sender , quizcounter , correct);\n        quizcounter++;\n    }\n    \n    // in-contract time management ??\n    // currently the frontend should handle the pooling period time.\n    // The pooling happens for the quiz pointed by quizcounter...\n    // Pool() can only be called during pooling period.\n    \n    event Pooled(address pooler , uint amount , uint quiz_id);\n    function Pool(uint256 amount , uint256 quiz_id) public {\n        \n        require(proposed_quiz[quiz_id].participants.length < participant_limit , \"Sorry the quiz participation is full . Please try later \");\n        require(GetStake(msg.sender) >= amount , \"Not Enough stake \");\n        require(amount >= participation_fee , \"Minimum participation fee not reached \");\n        \n        member[msg.sender].stake -= amount;\n        proposed_quiz[quiz_id].TotalPool += amount;\n        proposed_quiz[quiz_id].participants.push(msg.sender);\n        member[msg.sender].quiz_entered = quiz_id;\n        emit Pooled(msg.sender , amount , quiz_id);\n    }\n    \n    // if the participants == 0 after pooling time is up Terminate Quiz is called \n    \n    function TerminateQuiz(uint quiz_id) public {\n        \n        require(quiz_id < quizcounter , \"Such quiz doesn't exist\");\n        require(IsQuizOwner(msg.sender , quiz_id) , \"Only the quiz owner can call Terminate\");\n        \n        member[msg.sender].stake += proposal_fee;\n        delete proposed_quiz[quiz_id];\n    }\n    \n    event Commence(uint quiz_id);\n    function CommenceQuiz(uint quiz_id) public {\n        \n        require(quiz_id < quizcounter , \"Such quiz doesn't exist\");\n        require(IsQuizOwner(msg.sender , quiz_id) , \"Only the quiz owner can call Commence\");\n        \n        proposed_quiz[quiz_id].commenced = true;\n        emit Commence(quiz_id);\n        // notify all participants \n    }\n    \n    event Answered(address a , uint quiz_id , uint option ); \n /*   function Answer(uint quiz_id , uint option) public {\n    \n    \trequire(quiz_id < quizcounter , \"Such quiz doesn't exist\");\n    \trequire(hasQuizCommenced(quiz_id) , \"Quiz has not started yet\");\n    \trequire(IsMember(msg.sender) && hasPooled(msg.sender , quiz_id) , \"Cannot allow to answer\");\n    \t\n    */\t\n     \n    \n    \n    \n}\n",
  "sourcePath": "/home/mukul/Documents/Decent_Quiz/contracts/Quiz.sol",
  "compiler": {
    "name": "solc",
    "version": "0.6.0+commit.26b70077.Emscripten.clang"
  },
  "schemaVersion": "3.3.3",
  "updatedAt": "2021-02-05T12:46:36.871Z",
  "devdoc": {
    "methods": {}
  },
  "userdoc": {
    "methods": {}
  }
}