{
  "contractName": "MemberStorage",
  "abi": [
    {
      "inputs": [
        {
          "internalType": "uint256",
          "name": "_limit",
          "type": "uint256"
        }
      ],
      "name": "SetParticipantLimit",
      "outputs": [],
      "stateMutability": "nonpayable",
      "type": "function"
    },
    {
      "inputs": [
        {
          "internalType": "uint256",
          "name": "_fee",
          "type": "uint256"
        }
      ],
      "name": "SetParticipationFee",
      "outputs": [],
      "stateMutability": "nonpayable",
      "type": "function"
    },
    {
      "inputs": [
        {
          "internalType": "uint256",
          "name": "_fee",
          "type": "uint256"
        }
      ],
      "name": "SetProposalFee",
      "outputs": [],
      "stateMutability": "nonpayable",
      "type": "function"
    },
    {
      "inputs": [],
      "name": "participant_limit",
      "outputs": [
        {
          "internalType": "uint256",
          "name": "",
          "type": "uint256"
        }
      ],
      "stateMutability": "view",
      "type": "function"
    },
    {
      "inputs": [],
      "name": "participation_fee",
      "outputs": [
        {
          "internalType": "uint256",
          "name": "",
          "type": "uint256"
        }
      ],
      "stateMutability": "view",
      "type": "function"
    },
    {
      "inputs": [],
      "name": "proposal_fee",
      "outputs": [
        {
          "internalType": "uint256",
          "name": "",
          "type": "uint256"
        }
      ],
      "stateMutability": "view",
      "type": "function"
    },
    {
      "inputs": [
        {
          "internalType": "address",
          "name": "a",
          "type": "address"
        }
      ],
      "name": "IsMember",
      "outputs": [
        {
          "internalType": "bool",
          "name": "",
          "type": "bool"
        }
      ],
      "stateMutability": "view",
      "type": "function"
    },
    {
      "inputs": [
        {
          "internalType": "address",
          "name": "a",
          "type": "address"
        }
      ],
      "name": "GetStake",
      "outputs": [
        {
          "internalType": "uint256",
          "name": "",
          "type": "uint256"
        }
      ],
      "stateMutability": "view",
      "type": "function"
    },
    {
      "inputs": [
        {
          "internalType": "address",
          "name": "a",
          "type": "address"
        }
      ],
      "name": "hasPooled",
      "outputs": [
        {
          "internalType": "bool",
          "name": "",
          "type": "bool"
        }
      ],
      "stateMutability": "view",
      "type": "function"
    }
  ],
  "bytecode": "0x608060405262030d40600081905550620186a0600181905550600360028190555033600360006101000a81548173ffffffffffffffffffffffffffffffffffffffff021916908373ffffffffffffffffffffffffffffffffffffffff160217905550610662806100706000396000f3fe608060405234801561001057600080fd5b50600436106100935760003560e01c80636330f636116100665780636330f636146101325780636cedcceb1461014e5780637173b9a51461016c578063cd6871531461019c578063e3aee4c8146101ba57610093565b80631ca4847f14610098578063264560d6146100b65780632b2ae28c146100e65780635c50c78d14610102575b600080fd5b6100a06101d6565b6040516100ad919061058a565b60405180910390f35b6100d060048036036100cb919081019061049f565b6101dc565b6040516100dd919061054f565b60405180910390f35b61010060048036036100fb91908101906104c8565b61024d565b005b61011c6004803603610117919081019061049f565b6102b1565b604051610129919061058a565b60405180910390f35b61014c600480360361014791908101906104c8565b610345565b005b6101566103a9565b604051610163919061058a565b60405180910390f35b6101866004803603610181919081019061049f565b6103af565b604051610193919061054f565b60405180910390f35b6101a461040b565b6040516101b1919061058a565b60405180910390f35b6101d460048036036101cf91908101906104c8565b610411565b005b60025481565b600060011515600460008473ffffffffffffffffffffffffffffffffffffffff1673ffffffffffffffffffffffffffffffffffffffff16815260200190815260200160002060030160149054906101000a900460ff16151514156102435760019050610248565b600090505b919050565b600360009054906101000a900473ffffffffffffffffffffffffffffffffffffffff1673ffffffffffffffffffffffffffffffffffffffff163373ffffffffffffffffffffffffffffffffffffffff16146102a757600080fd5b8060028190555050565b60006102bc826101dc565b6102fb576040517f08c379a00000000000000000000000000000000000000000000000000000000081526004016102f29061056a565b60405180910390fd5b600460008373ffffffffffffffffffffffffffffffffffffffff1673ffffffffffffffffffffffffffffffffffffffff168152602001908152602001600020600201549050919050565b600360009054906101000a900473ffffffffffffffffffffffffffffffffffffffff1673ffffffffffffffffffffffffffffffffffffffff163373ffffffffffffffffffffffffffffffffffffffff161461039f57600080fd5b8060008190555050565b60005481565b600080600460008473ffffffffffffffffffffffffffffffffffffffff1673ffffffffffffffffffffffffffffffffffffffff1681526020019081526020016000206005015411610401576000610404565b60015b9050919050565b60015481565b600360009054906101000a900473ffffffffffffffffffffffffffffffffffffffff1673ffffffffffffffffffffffffffffffffffffffff163373ffffffffffffffffffffffffffffffffffffffff161461046b57600080fd5b8060018190555050565b600081359050610484816105fe565b92915050565b60008135905061049981610615565b92915050565b6000602082840312156104b157600080fd5b60006104bf84828501610475565b91505092915050565b6000602082840312156104da57600080fd5b60006104e88482850161048a565b91505092915050565b6104fa816105c8565b82525050565b600061050d6015836105a5565b91507f506c6561736520726567697374657220666972737400000000000000000000006000830152602082019050919050565b610549816105f4565b82525050565b600060208201905061056460008301846104f1565b92915050565b6000602082019050818103600083015261058381610500565b9050919050565b600060208201905061059f6000830184610540565b92915050565b600082825260208201905092915050565b60006105c1826105d4565b9050919050565b60008115159050919050565b600073ffffffffffffffffffffffffffffffffffffffff82169050919050565b6000819050919050565b610607816105b6565b811461061257600080fd5b50565b61061e816105f4565b811461062957600080fd5b5056fea264697066735822122080d91951cbd1cadd984a012bbf79cacb0fc7cd5b622b6b8c3742fb8e9557c10964736f6c63430006000033",
  "source": "pragma solidity ^0.6.0;\npragma experimental ABIEncoderV2;\nimport \"./Variables.sol\";\n\ncontract MemberStorage is Variables{\n    struct User {\n        string name ;\n        uint id ;\n        uint stake ;\n        address acc;\n        bool exists;\n        uint quiz_proposed;  // 0 for no quiz\n        uint quiz_entered ;// 0 for no quiz \n    }\n    mapping(address =>User) member;\n    \n    function IsMember(address a) public  view returns(bool){\n        if(member[a].exists == true){return true;}\n        return false;\n    }\n    \n    function GetStake(address a ) public view returns(uint256){\n        require(IsMember(a) , \"Please register first\");\n        return member[a].stake;\n    }\n    function hasPooled(address a )public view returns(bool){\n   \treturn (member[a].quiz_entered > 0 ? true : false);\n   }\n}\n",
  "sourcePath": "/home/mukul/Documents/Decent_Quiz/contracts/MemberStore.sol",
  "compiler": {
    "name": "solc",
    "version": "0.6.0+commit.26b70077.Emscripten.clang"
  },
  "schemaVersion": "3.3.3",
  "updatedAt": "2021-02-05T12:46:36.867Z",
  "devdoc": {
    "methods": {}
  },
  "userdoc": {
    "methods": {}
  }
}