{
  "contractName": "MemberStorage",
  "abi": [
    {
      "inputs": [],
      "name": "GetParticipantLimit",
      "outputs": [
        {
          "internalType": "uint256",
          "name": "",
          "type": "uint256"
        }
      ],
      "stateMutability": "view",
      "type": "function"
    },
    {
      "inputs": [],
      "name": "GetParticipationFee",
      "outputs": [
        {
          "internalType": "uint256",
          "name": "",
          "type": "uint256"
        }
      ],
      "stateMutability": "view",
      "type": "function"
    },
    {
      "inputs": [],
      "name": "GetProposalFee",
      "outputs": [
        {
          "internalType": "uint256",
          "name": "",
          "type": "uint256"
        }
      ],
      "stateMutability": "view",
      "type": "function"
    },
    {
      "inputs": [
        {
          "internalType": "uint256",
          "name": "_limit",
          "type": "uint256"
        }
      ],
      "name": "SetParticipantLimit",
      "outputs": [],
      "stateMutability": "nonpayable",
      "type": "function"
    },
    {
      "inputs": [
        {
          "internalType": "uint256",
          "name": "_fee",
          "type": "uint256"
        }
      ],
      "name": "SetParticipationFee",
      "outputs": [],
      "stateMutability": "nonpayable",
      "type": "function"
    },
    {
      "inputs": [
        {
          "internalType": "uint256",
          "name": "_fee",
          "type": "uint256"
        }
      ],
      "name": "SetProposalFee",
      "outputs": [],
      "stateMutability": "nonpayable",
      "type": "function"
    },
    {
      "inputs": [
        {
          "internalType": "address",
          "name": "a",
          "type": "address"
        }
      ],
      "name": "IsMember",
      "outputs": [
        {
          "internalType": "bool",
          "name": "",
          "type": "bool"
        }
      ],
      "stateMutability": "view",
      "type": "function"
    },
    {
      "inputs": [
        {
          "internalType": "address",
          "name": "a",
          "type": "address"
        }
      ],
      "name": "GetStake",
      "outputs": [
        {
          "internalType": "uint256",
          "name": "",
          "type": "uint256"
        }
      ],
      "stateMutability": "view",
      "type": "function"
    }
  ],
  "bytecode": "0x608060405262030d40600081905550620186a060018190555060036002819055506104c88061002f6000396000f3fe608060405234801561001057600080fd5b50600436106100885760003560e01c80636330f6361161005b5780636330f636146101275780637602082614610143578063a678151814610161578063e3aee4c81461017f57610088565b8063264560d61461008d5780632b2ae28c146100bd5780635a7d5451146100d95780635c50c78d146100f7575b600080fd5b6100a760048036036100a29190810190610305565b61019b565b6040516100b491906103b5565b60405180910390f35b6100d760048036036100d2919081019061032e565b61020c565b005b6100e1610216565b6040516100ee91906103f0565b60405180910390f35b610111600480360361010c9190810190610305565b610220565b60405161011e91906103f0565b60405180910390f35b610141600480360361013c919081019061032e565b6102b4565b005b61014b6102be565b60405161015891906103f0565b60405180910390f35b6101696102c8565b60405161017691906103f0565b60405180910390f35b6101996004803603610194919081019061032e565b6102d1565b005b600060011515600360008473ffffffffffffffffffffffffffffffffffffffff1673ffffffffffffffffffffffffffffffffffffffff16815260200190815260200160002060030160149054906101000a900460ff16151514156102025760019050610207565b600090505b919050565b8060028190555050565b6000600154905090565b600061022b8261019b565b61026a576040517f08c379a0000000000000000000000000000000000000000000000000000000008152600401610261906103d0565b60405180910390fd5b600360008373ffffffffffffffffffffffffffffffffffffffff1673ffffffffffffffffffffffffffffffffffffffff168152602001908152602001600020600201549050919050565b8060008190555050565b6000600254905090565b60008054905090565b8060018190555050565b6000813590506102ea81610464565b92915050565b6000813590506102ff8161047b565b92915050565b60006020828403121561031757600080fd5b6000610325848285016102db565b91505092915050565b60006020828403121561034057600080fd5b600061034e848285016102f0565b91505092915050565b6103608161042e565b82525050565b600061037360158361040b565b91507f506c6561736520726567697374657220666972737400000000000000000000006000830152602082019050919050565b6103af8161045a565b82525050565b60006020820190506103ca6000830184610357565b92915050565b600060208201905081810360008301526103e981610366565b9050919050565b600060208201905061040560008301846103a6565b92915050565b600082825260208201905092915050565b60006104278261043a565b9050919050565b60008115159050919050565b600073ffffffffffffffffffffffffffffffffffffffff82169050919050565b6000819050919050565b61046d8161041c565b811461047857600080fd5b50565b6104848161045a565b811461048f57600080fd5b5056fea2646970667358221220e9dd60beb0d375becd4f3884696f821a54e97765914e34996fefbdee4855ce1864736f6c63430006000033",
  "source": "pragma solidity ^0.6.0;\npragma experimental ABIEncoderV2;\nimport \"./Variables.sol\";\n\ncontract MemberStorage is Variables{\n    struct User {\n        string name ;\n        uint id ;\n        uint stake ;\n        address acc;\n        bool exists;\n        uint quiz_proposed;  // 0 for no quiz\n        uint quiz_entered ;// 0 for no quiz \n    }\n    mapping(address =>User) member;\n    \n    function IsMember(address a) public  view returns(bool){\n        if(member[a].exists == true){return true;}\n        return false;\n    }\n    \n\n    function GetStake(address a ) public view returns(uint256){\n        require(IsMember(a) , \"Please register first\");\n        return member[a].stake;\n    }\n}\n",
  "sourcePath": "/home/mukul/Documents/Decent_Quiz/contracts/MemberStore.sol",
  "compiler": {
    "name": "solc",
    "version": "0.6.0+commit.26b70077.Emscripten.clang"
  },
  "schemaVersion": "3.3.3",
  "updatedAt": "2021-02-05T10:49:33.187Z",
  "devdoc": {
    "methods": {}
  },
  "userdoc": {
    "methods": {}
  }
}