{
  "contractName": "QuizStorage",
  "abi": [
    {
      "inputs": [
        {
          "internalType": "uint256",
          "name": "index",
          "type": "uint256"
        }
      ],
      "name": "NumberofPartipants",
      "outputs": [
        {
          "internalType": "uint256",
          "name": "",
          "type": "uint256"
        }
      ],
      "stateMutability": "view",
      "type": "function"
    },
    {
      "inputs": [
        {
          "internalType": "address",
          "name": "a",
          "type": "address"
        },
        {
          "internalType": "uint256",
          "name": "quiz_id",
          "type": "uint256"
        }
      ],
      "name": "IsQuizOwner",
      "outputs": [
        {
          "internalType": "bool",
          "name": "",
          "type": "bool"
        }
      ],
      "stateMutability": "view",
      "type": "function"
    },
    {
      "inputs": [
        {
          "internalType": "uint256",
          "name": "quiz_id",
          "type": "uint256"
        }
      ],
      "name": "QuizCommenced",
      "outputs": [
        {
          "internalType": "bool",
          "name": "",
          "type": "bool"
        }
      ],
      "stateMutability": "view",
      "type": "function"
    }
  ],
  "bytecode": "0x608060405234801561001057600080fd5b5061034b806100206000396000f3fe608060405234801561001057600080fd5b50600436106100415760003560e01c80632869fc2814610046578063b9de6bc114610076578063ecbcb1c7146100a6575b600080fd5b610060600480360361005b9190810190610222565b6100d6565b60405161006d9190610284565b60405180910390f35b610090600480360361008b91908101906101e6565b610100565b60405161009d9190610269565b60405180910390f35b6100c060048036036100bb9190810190610222565b610188565b6040516100cd9190610269565b60405180910390f35b60008082815481106100e457fe5b90600052602060002090600a0201600701805490509050919050565b60008273ffffffffffffffffffffffffffffffffffffffff166000838154811061012657fe5b90600052602060002090600a020160000160009054906101000a900473ffffffffffffffffffffffffffffffffffffffff1673ffffffffffffffffffffffffffffffffffffffff16141561017d5760019050610182565b600090505b92915050565b600080828154811061019657fe5b90600052602060002090600a020160090160009054906101000a900460ff169050919050565b6000813590506101cb816102e7565b92915050565b6000813590506101e0816102fe565b92915050565b600080604083850312156101f957600080fd5b6000610207858286016101bc565b9250506020610218858286016101d1565b9150509250929050565b60006020828403121561023457600080fd5b6000610242848285016101d1565b91505092915050565b610254816102b1565b82525050565b610263816102dd565b82525050565b600060208201905061027e600083018461024b565b92915050565b6000602082019050610299600083018461025a565b92915050565b60006102aa826102bd565b9050919050565b60008115159050919050565b600073ffffffffffffffffffffffffffffffffffffffff82169050919050565b6000819050919050565b6102f08161029f565b81146102fb57600080fd5b50565b610307816102dd565b811461031257600080fd5b5056fea2646970667358221220f9052db1f68849c265dd3aafaf0519e1d01d06269519c35dc8e9b84de26026c964736f6c63430006000033",
  "source": "pragma solidity ^0.6.0;\npragma experimental ABIEncoderV2;\n\ncontract QuizStorage{\n    struct Quiz{\n        address proposer;\n        string ques;\n        string [4] option;\n        uint correct;\n        address [] participants;\n        uint256 TotalPool ;\n        bool commenced;\n    }\n    Quiz [] proposed_quiz;\n  \n    function NumberofPartipants(uint index) public view returns(uint256){\n        return proposed_quiz[index].participants.length;\n    }\n    function IsQuizOwner(address a , uint quiz_id) public view returns(bool) {\n        if(proposed_quiz[quiz_id].proposer == a){return true;}\n        return false;\n    }\n    function QuizCommenced(uint quiz_id) public view returns(bool){\n    \treturn proposed_quiz[quiz_id].commenced;\n    }\n}\n\n\n\n\n\n\n\n",
  "sourcePath": "/home/mukul/Documents/Decent_Quiz/contracts/QuizStore.sol",
  "compiler": {
    "name": "solc",
    "version": "0.6.0+commit.26b70077.Emscripten.clang"
  },
  "schemaVersion": "3.3.3",
  "updatedAt": "2021-02-05T12:46:36.877Z",
  "devdoc": {
    "methods": {}
  },
  "userdoc": {
    "methods": {}
  }
}