{
  "contractName": "QuizStorage",
  "abi": [
    {
      "inputs": [
        {
          "internalType": "uint256",
          "name": "index",
          "type": "uint256"
        }
      ],
      "name": "NumberofPartipants",
      "outputs": [
        {
          "internalType": "uint256",
          "name": "",
          "type": "uint256"
        }
      ],
      "stateMutability": "view",
      "type": "function"
    },
    {
      "inputs": [
        {
          "internalType": "address",
          "name": "a",
          "type": "address"
        },
        {
          "internalType": "uint256",
          "name": "quiz_id",
          "type": "uint256"
        }
      ],
      "name": "IsQuizOwner",
      "outputs": [
        {
          "internalType": "bool",
          "name": "",
          "type": "bool"
        }
      ],
      "stateMutability": "view",
      "type": "function"
    }
  ],
  "bytecode": "0x608060405234801561001057600080fd5b506102dc806100206000396000f3fe608060405234801561001057600080fd5b50600436106100365760003560e01c80632869fc281461003b578063b9de6bc11461006b575b600080fd5b610055600480360361005091908101906101b3565b61009b565b6040516100629190610215565b60405180910390f35b61008560048036036100809190810190610177565b6100c5565b60405161009291906101fa565b60405180910390f35b60008082815481106100a957fe5b9060005260206000209060090201600701805490509050919050565b60008273ffffffffffffffffffffffffffffffffffffffff16600083815481106100eb57fe5b906000526020600020906009020160000160009054906101000a900473ffffffffffffffffffffffffffffffffffffffff1673ffffffffffffffffffffffffffffffffffffffff1614156101425760019050610147565b600090505b92915050565b60008135905061015c81610278565b92915050565b6000813590506101718161028f565b92915050565b6000806040838503121561018a57600080fd5b60006101988582860161014d565b92505060206101a985828601610162565b9150509250929050565b6000602082840312156101c557600080fd5b60006101d384828501610162565b91505092915050565b6101e581610242565b82525050565b6101f48161026e565b82525050565b600060208201905061020f60008301846101dc565b92915050565b600060208201905061022a60008301846101eb565b92915050565b600061023b8261024e565b9050919050565b60008115159050919050565b600073ffffffffffffffffffffffffffffffffffffffff82169050919050565b6000819050919050565b61028181610230565b811461028c57600080fd5b50565b6102988161026e565b81146102a357600080fd5b5056fea26469706673582212209255cb517e7ddeabbfc0cbf645cc3b2b11ccfc47769bc7fc2c6dc585fe5091d664736f6c63430006000033",
  "source": "pragma solidity ^0.6.0;\npragma experimental ABIEncoderV2;\n\ncontract QuizStorage{\n    struct Quiz{\n        address proposer;\n        string ques;\n        string [4] option;\n        uint correct;\n        address [] participants;\n        uint256 TotalPool ;\n    }\n    Quiz [] proposed_quiz;\n  \n    function NumberofPartipants(uint index) public view returns(uint256){\n        return proposed_quiz[index].participants.length;\n    }\n    function IsQuizOwner(address a , uint quiz_id) public view returns(bool) {\n        if(proposed_quiz[quiz_id].proposer == a){return true;}\n        return false;\n    }\n}\n\n\n\n\n\n\n\n",
  "sourcePath": "/home/mukul/Documents/Decent_Quiz/contracts/QuizStore.sol",
  "compiler": {
    "name": "solc",
    "version": "0.6.0+commit.26b70077.Emscripten.clang"
  },
  "schemaVersion": "3.3.3",
  "updatedAt": "2021-02-05T10:52:27.908Z",
  "devdoc": {
    "methods": {}
  },
  "userdoc": {
    "methods": {}
  }
}