{
  "contractName": "Variables",
  "abi": [
    {
      "inputs": [],
      "stateMutability": "nonpayable",
      "type": "constructor"
    },
    {
      "inputs": [],
      "name": "participant_limit",
      "outputs": [
        {
          "internalType": "uint256",
          "name": "",
          "type": "uint256"
        }
      ],
      "stateMutability": "view",
      "type": "function"
    },
    {
      "inputs": [],
      "name": "participation_fee",
      "outputs": [
        {
          "internalType": "uint256",
          "name": "",
          "type": "uint256"
        }
      ],
      "stateMutability": "view",
      "type": "function"
    },
    {
      "inputs": [],
      "name": "proposal_fee",
      "outputs": [
        {
          "internalType": "uint256",
          "name": "",
          "type": "uint256"
        }
      ],
      "stateMutability": "view",
      "type": "function"
    },
    {
      "inputs": [
        {
          "internalType": "uint256",
          "name": "_fee",
          "type": "uint256"
        }
      ],
      "name": "SetProposalFee",
      "outputs": [],
      "stateMutability": "nonpayable",
      "type": "function"
    },
    {
      "inputs": [
        {
          "internalType": "uint256",
          "name": "_fee",
          "type": "uint256"
        }
      ],
      "name": "SetParticipationFee",
      "outputs": [],
      "stateMutability": "nonpayable",
      "type": "function"
    },
    {
      "inputs": [
        {
          "internalType": "uint256",
          "name": "_limit",
          "type": "uint256"
        }
      ],
      "name": "SetParticipantLimit",
      "outputs": [],
      "stateMutability": "nonpayable",
      "type": "function"
    }
  ],
  "bytecode": "0x608060405234801561001057600080fd5b5062030d40600081905550620186a0600181905550600360028190555033600360006101000a81548173ffffffffffffffffffffffffffffffffffffffff021916908373ffffffffffffffffffffffffffffffffffffffff1602179055506103128061007d6000396000f3fe608060405234801561001057600080fd5b50600436106100625760003560e01c80631ca4847f146100675780632b2ae28c146100855780636330f636146100a15780636cedcceb146100bd578063cd687153146100db578063e3aee4c8146100f9575b600080fd5b61006f610115565b60405161007c91906102a0565b60405180910390f35b61009f600480360361009a9190810190610268565b61011b565b005b6100bb60048036036100b69190810190610268565b61017f565b005b6100c56101e3565b6040516100d291906102a0565b60405180910390f35b6100e36101e9565b6040516100f091906102a0565b60405180910390f35b610113600480360361010e9190810190610268565b6101ef565b005b60025481565b600360009054906101000a900473ffffffffffffffffffffffffffffffffffffffff1673ffffffffffffffffffffffffffffffffffffffff163373ffffffffffffffffffffffffffffffffffffffff161461017557600080fd5b8060028190555050565b600360009054906101000a900473ffffffffffffffffffffffffffffffffffffffff1673ffffffffffffffffffffffffffffffffffffffff163373ffffffffffffffffffffffffffffffffffffffff16146101d957600080fd5b8060008190555050565b60005481565b60015481565b600360009054906101000a900473ffffffffffffffffffffffffffffffffffffffff1673ffffffffffffffffffffffffffffffffffffffff163373ffffffffffffffffffffffffffffffffffffffff161461024957600080fd5b8060018190555050565b600081359050610262816102c5565b92915050565b60006020828403121561027a57600080fd5b600061028884828501610253565b91505092915050565b61029a816102bb565b82525050565b60006020820190506102b56000830184610291565b92915050565b6000819050919050565b6102ce816102bb565b81146102d957600080fd5b5056fea2646970667358221220bc6afb31a3d3f605dc53d75894e5099e54f64ce9930325f6dd1a1ea2acd8aa1d64736f6c63430006000033",
  "source": "pragma solidity ^0.6.0;\npragma experimental ABIEncoderV2;\n\n// stores those vars that may change over time .\ncontract Variables{\n    // #####change view access modifier of state vars;\n    uint256 public proposal_fee;\n    uint256 public participation_fee;\n    uint256 public participant_limit;\n    address owner ;\n    constructor() public{\n        proposal_fee = 200000 ;\n        participation_fee = 100000 ;\n        participant_limit = 3;\n        owner = msg.sender;\n    }\n    function getowner() internal returns(address){\n    \treturn owner;\n    }\n    modifier isOwner{\n    \trequire(msg.sender == owner);\n    \t_;\n    }\n    // ### include modifiers for admin access ;\n    function SetProposalFee(uint256 _fee) external isOwner{\n        proposal_fee = _fee;\n    }\n    function SetParticipationFee(uint256 _fee) external isOwner{\n        participation_fee = _fee;\n    }\n    function SetParticipantLimit(uint256 _limit) external isOwner{\n        participant_limit = _limit;\n    }\n}\n",
  "sourcePath": "/home/mukul/Documents/Decent_Quiz/contracts/Variables.sol",
  "compiler": {
    "name": "solc",
    "version": "0.6.0+commit.26b70077.Emscripten.clang"
  },
  "schemaVersion": "3.3.3",
  "updatedAt": "2021-02-05T11:38:11.422Z",
  "devdoc": {
    "methods": {}
  },
  "userdoc": {
    "methods": {}
  }
}