{
  "contractName": "Variables",
  "abi": [
    {
      "inputs": [],
      "stateMutability": "nonpayable",
      "type": "constructor"
    },
    {
      "inputs": [],
      "name": "GetProposalFee",
      "outputs": [
        {
          "internalType": "uint256",
          "name": "",
          "type": "uint256"
        }
      ],
      "stateMutability": "view",
      "type": "function"
    },
    {
      "inputs": [
        {
          "internalType": "uint256",
          "name": "_fee",
          "type": "uint256"
        }
      ],
      "name": "SetProposalFee",
      "outputs": [],
      "stateMutability": "nonpayable",
      "type": "function"
    },
    {
      "inputs": [],
      "name": "GetParticipationFee",
      "outputs": [
        {
          "internalType": "uint256",
          "name": "",
          "type": "uint256"
        }
      ],
      "stateMutability": "view",
      "type": "function"
    },
    {
      "inputs": [
        {
          "internalType": "uint256",
          "name": "_fee",
          "type": "uint256"
        }
      ],
      "name": "SetParticipationFee",
      "outputs": [],
      "stateMutability": "nonpayable",
      "type": "function"
    },
    {
      "inputs": [],
      "name": "GetParticipantLimit",
      "outputs": [
        {
          "internalType": "uint256",
          "name": "",
          "type": "uint256"
        }
      ],
      "stateMutability": "view",
      "type": "function"
    },
    {
      "inputs": [
        {
          "internalType": "uint256",
          "name": "_limit",
          "type": "uint256"
        }
      ],
      "name": "SetParticipantLimit",
      "outputs": [],
      "stateMutability": "nonpayable",
      "type": "function"
    }
  ],
  "bytecode": "0x608060405234801561001057600080fd5b5062030d40600081905550620186a0600181905550600360028190555061020f8061003c6000396000f3fe608060405234801561001057600080fd5b50600436106100625760003560e01c80632b2ae28c146100675780635a7d5451146100835780636330f636146100a157806376020826146100bd578063a6781518146100db578063e3aee4c8146100f9575b600080fd5b610081600480360361007c9190810190610165565b610115565b005b61008b61011f565b604051610098919061019d565b60405180910390f35b6100bb60048036036100b69190810190610165565b610129565b005b6100c5610133565b6040516100d2919061019d565b60405180910390f35b6100e361013d565b6040516100f0919061019d565b60405180910390f35b610113600480360361010e9190810190610165565b610146565b005b8060028190555050565b6000600154905090565b8060008190555050565b6000600254905090565b60008054905090565b8060018190555050565b60008135905061015f816101c2565b92915050565b60006020828403121561017757600080fd5b600061018584828501610150565b91505092915050565b610197816101b8565b82525050565b60006020820190506101b2600083018461018e565b92915050565b6000819050919050565b6101cb816101b8565b81146101d657600080fd5b5056fea26469706673582212208a8c1d03a3bc19b11abfab60bdfbc8e5b7705042f6f50e5fc8893e8491e06d9a64736f6c63430006000033",
  "source": "pragma solidity ^0.6.0;\npragma experimental ABIEncoderV2;\n\n// stores those vars that may change over time .\ncontract Variables{\n    // #####change view access modifier of state vars;\n    uint256 internal proposal_fee;\n    uint256 internal participation_fee;\n    uint256 internal participant_limit;\n    \n    constructor() public{\n        proposal_fee = 200000 ; // gwei\n        participation_fee = 100000 ;\n        participant_limit = 3;\n    }\n    \n    // ### include modifiers for admin access ;\n    function GetProposalFee() public view returns(uint256){\n        return proposal_fee;\n    }\n    function SetProposalFee(uint256 _fee) public {\n        proposal_fee = _fee;\n    }\n    function GetParticipationFee() public view returns(uint256){\n        return participation_fee;\n    }\n    function SetParticipationFee(uint256 _fee) public {\n        participation_fee = _fee;\n    }\n    function GetParticipantLimit() public view returns(uint256){\n        return participant_limit;\n    }\n    function SetParticipantLimit(uint256 _limit) public {\n        participant_limit = _limit;\n    }\n}\n",
  "sourcePath": "/home/mukul/Documents/Decent_Quiz/contracts/Variables.sol",
  "compiler": {
    "name": "solc",
    "version": "0.6.0+commit.26b70077.Emscripten.clang"
  },
  "schemaVersion": "3.3.3",
  "updatedAt": "2021-02-05T10:49:33.191Z",
  "devdoc": {
    "methods": {}
  },
  "userdoc": {
    "methods": {}
  }
}